{
  "transactions": [
    {
      "hash": "0x43ad278452169fe3da85bcb75d0a5722011b791b19539e4a9dd7c6195653885f",
      "transactionType": "CALL",
      "contractName": null,
      "contractAddress": "0x0c5ef39256dcc4442d55a74ef272552d0a171e94",
      "function": "upsertPcsCertificates(uint8,bytes)",
      "arguments": [
        "0",
        "0x3082028f30820234a003020102021422650cd65a9d3489f383b49552bf501b392706ac300a06082a8648ce3d0403023068311a301806035504030c11496e74656c2053475820526f6f74204341311a3018060355040a0c11496e74656c20436f72706f726174696f6e3114301206035504070c0b53616e746120436c617261310b300906035504080c024341310b3009060355040613025553301e170d3138303532313130343531305a170d3439313233313233353935395a3068311a301806035504030c11496e74656c2053475820526f6f74204341311a3018060355040a0c11496e74656c20436f72706f726174696f6e3114301206035504070c0b53616e746120436c617261310b300906035504080c024341310b30090603550406130255533059301306072a8648ce3d020106082a8648ce3d030107034200040ba9c4c0c0c86193a3fe23d6b02cda10a8bbd4e88e48b4458561a36e705525f567918e2edc88e40d860bd0cc4ee26aacc988e505a953558c453f6b0904ae7394a381bb3081b8301f0603551d2304183016801422650cd65a9d3489f383b49552bf501b392706ac30520603551d1f044b30493047a045a043864168747470733a2f2f6365727469666963617465732e7472757374656473657276696365732e696e74656c2e636f6d2f496e74656c534758526f6f7443412e646572301d0603551d0e0416041422650cd65a9d3489f383b49552bf501b392706ac300e0603551d0f0101ff04040302010630120603551d130101ff040830060101ff020101300a06082a8648ce3d0403020349003046022100e5bfe50911f92f428920dc368a302ee3d12ec5867ff622ec6497f78060c13c20022100e09d25ac7a0cb3e5e8e68fec5fa3bd416c47440bd950639d450edcbea4576aa2"
      ],
      "transaction": {
        "from": "0x95d06b395f04dc1bbd0ce9fcc501d7044ea25dad",
        "to": "0x0c5ef39256dcc4442d55a74ef272552d0a171e94",
        "gas": "0xc8a7b",
        "value": "0x0",
        "input": "0x3b3954550000000000000000000000000000000000000000000000000000000000000000000000000000000000000000000000000000000000000000000000000000004000000000000000000000000000000000000000000000000000000000000002933082028f30820234a003020102021422650cd65a9d3489f383b49552bf501b392706ac300a06082a8648ce3d0403023068311a301806035504030c11496e74656c2053475820526f6f74204341311a3018060355040a0c11496e74656c20436f72706f726174696f6e3114301206035504070c0b53616e746120436c617261310b300906035504080c024341310b3009060355040613025553301e170d3138303532313130343531305a170d3439313233313233353935395a3068311a301806035504030c11496e74656c2053475820526f6f74204341311a3018060355040a0c11496e74656c20436f72706f726174696f6e3114301206035504070c0b53616e746120436c617261310b300906035504080c024341310b30090603550406130255533059301306072a8648ce3d020106082a8648ce3d030107034200040ba9c4c0c0c86193a3fe23d6b02cda10a8bbd4e88e48b4458561a36e705525f567918e2edc88e40d860bd0cc4ee26aacc988e505a953558c453f6b0904ae7394a381bb3081b8301f0603551d2304183016801422650cd65a9d3489f383b49552bf501b392706ac30520603551d1f044b30493047a045a043864168747470733a2f2f6365727469666963617465732e7472757374656473657276696365732e696e74656c2e636f6d2f496e74656c534758526f6f7443412e646572301d0603551d0e0416041422650cd65a9d3489f383b49552bf501b392706ac300e0603551d0f0101ff04040302010630120603551d130101ff040830060101ff020101300a06082a8648ce3d0403020349003046022100e5bfe50911f92f428920dc368a302ee3d12ec5867ff622ec6497f78060c13c20022100e09d25ac7a0cb3e5e8e68fec5fa3bd416c47440bd950639d450edcbea4576aa200000000000000000000000000",
        "nonce": "0x8",
        "chainId": "0x66eee"
      },
      "additionalContracts": [],
      "isFixedGasLimit": false
    },
    {
      "hash": "0x945024c0af500a65b688eca8d6af725f72e14ac4109bf51aaa84797d1334e3bb",
      "transactionType": "CALL",
      "contractName": null,
      "contractAddress": "0x0c5ef39256dcc4442d55a74ef272552d0a171e94",
      "function": "upsertPcsCertificates(uint8,bytes)",
      "arguments": [
        "3",
        "0x3082028b30820232a00302010202147e3882d5fb55294a40498e458403e91491bdf455300a06082a8648ce3d0403023068311a301806035504030c11496e74656c2053475820526f6f74204341311a3018060355040a0c11496e74656c20436f72706f726174696f6e3114301206035504070c0b53616e746120436c617261310b300906035504080c024341310b3009060355040613025553301e170d3138303532313130353031305a170d3235303532313130353031305a306c311e301c06035504030c15496e74656c2053475820544342205369676e696e67311a3018060355040a0c11496e74656c20436f72706f726174696f6e3114301206035504070c0b53616e746120436c617261310b300906035504080c024341310b30090603550406130255533059301306072a8648ce3d020106082a8648ce3d0301070342000443451bcc73c9d5917caf766e61af3fe98087dd4f13257b261e851897799dd13d6811fb47713803bb9bae587fccddc2e31be9a28b86962acc6daf96da58eeca96a381b53081b2301f0603551d2304183016801422650cd65a9d3489f383b49552bf501b392706ac30520603551d1f044b30493047a045a043864168747470733a2f2f6365727469666963617465732e7472757374656473657276696365732e696e74656c2e636f6d2f496e74656c534758526f6f7443412e646572301d0603551d0e041604147e3882d5fb55294a40498e458403e91491bdf455300e0603551d0f0101ff0404030206c0300c0603551d130101ff04023000300a06082a8648ce3d040302034700304402201f42f3038037f226c43b46002576e3a29caa36a064e47493272dc81aec1862550220237ed6eb346b0653c607db5d5d46260da0f3eed7d669ff37bc26686e8c1d2807"
      ],
      "transaction": {
        "from": "0x95d06b395f04dc1bbd0ce9fcc501d7044ea25dad",
        "to": "0x0c5ef39256dcc4442d55a74ef272552d0a171e94",
        "gas": "0xc7ef9",
        "value": "0x0",
        "input": "0x3b39545500000000000000000000000000000000000000000000000000000000000000030000000000000000000000000000000000000000000000000000000000000040000000000000000000000000000000000000000000000000000000000000028f3082028b30820232a00302010202147e3882d5fb55294a40498e458403e91491bdf455300a06082a8648ce3d0403023068311a301806035504030c11496e74656c2053475820526f6f74204341311a3018060355040a0c11496e74656c20436f72706f726174696f6e3114301206035504070c0b53616e746120436c617261310b300906035504080c024341310b3009060355040613025553301e170d3138303532313130353031305a170d3235303532313130353031305a306c311e301c06035504030c15496e74656c2053475820544342205369676e696e67311a3018060355040a0c11496e74656c20436f72706f726174696f6e3114301206035504070c0b53616e746120436c617261310b300906035504080c024341310b30090603550406130255533059301306072a8648ce3d020106082a8648ce3d0301070342000443451bcc73c9d5917caf766e61af3fe98087dd4f13257b261e851897799dd13d6811fb47713803bb9bae587fccddc2e31be9a28b86962acc6daf96da58eeca96a381b53081b2301f0603551d2304183016801422650cd65a9d3489f383b49552bf501b392706ac30520603551d1f044b30493047a045a043864168747470733a2f2f6365727469666963617465732e7472757374656473657276696365732e696e74656c2e636f6d2f496e74656c534758526f6f7443412e646572301d0603551d0e041604147e3882d5fb55294a40498e458403e91491bdf455300e0603551d0f0101ff0404030206c0300c0603551d130101ff04023000300a06082a8648ce3d040302034700304402201f42f3038037f226c43b46002576e3a29caa36a064e47493272dc81aec1862550220237ed6eb346b0653c607db5d5d46260da0f3eed7d669ff37bc26686e8c1d28070000000000000000000000000000000000",
        "nonce": "0x9",
        "chainId": "0x66eee"
      },
      "additionalContracts": [],
      "isFixedGasLimit": false
    },
    {
      "hash": "0x5ffea0d91c671cd952be90eb521fe5c6e591a7642485fdc0dc106eeced2e5032",
      "transactionType": "CALL",
      "contractName": null,
      "contractAddress": "0x0c5ef39256dcc4442d55a74ef272552d0a171e94",
      "function": "upsertPcsCertificates(uint8,bytes)",
      "arguments": [
        "2",
        "0x308202963082023da003020102021500956f5dcdbd1be1e94049c9d4f433ce01570bde54300a06082a8648ce3d0403023068311a301806035504030c11496e74656c2053475820526f6f74204341311a3018060355040a0c11496e74656c20436f72706f726174696f6e3114301206035504070c0b53616e746120436c617261310b300906035504080c024341310b3009060355040613025553301e170d3138303532313130353031305a170d3333303532313130353031305a30703122302006035504030c19496e74656c205347582050434b20506c6174666f726d204341311a3018060355040a0c11496e74656c20436f72706f726174696f6e3114301206035504070c0b53616e746120436c617261310b300906035504080c024341310b30090603550406130255533059301306072a8648ce3d020106082a8648ce3d0301070342000435207feeddb595748ed82bb3a71c3be1e241ef61320c6816e6b5c2b71dad5532eaea12a4eb3f948916429ea47ba6c3af82a15e4b19664e52657939a2d96633dea381bb3081b8301f0603551d2304183016801422650cd65a9d3489f383b49552bf501b392706ac30520603551d1f044b30493047a045a043864168747470733a2f2f6365727469666963617465732e7472757374656473657276696365732e696e74656c2e636f6d2f496e74656c534758526f6f7443412e646572301d0603551d0e04160414956f5dcdbd1be1e94049c9d4f433ce01570bde54300e0603551d0f0101ff04040302010630120603551d130101ff040830060101ff020100300a06082a8648ce3d040302034700304402205ec5648b4c3e8ba558196dd417fdb6b9a5ded182438f551e9c0f938c3d5a8b970220261bd520260f9c647d3569be8e14a32892631ac358b994478088f4d2b27cf37e"
      ],
      "transaction": {
        "from": "0x95d06b395f04dc1bbd0ce9fcc501d7044ea25dad",
        "to": "0x0c5ef39256dcc4442d55a74ef272552d0a171e94",
        "gas": "0xc81da",
        "value": "0x0",
        "input": "0x3b39545500000000000000000000000000000000000000000000000000000000000000020000000000000000000000000000000000000000000000000000000000000040000000000000000000000000000000000000000000000000000000000000029a308202963082023da003020102021500956f5dcdbd1be1e94049c9d4f433ce01570bde54300a06082a8648ce3d0403023068311a301806035504030c11496e74656c2053475820526f6f74204341311a3018060355040a0c11496e74656c20436f72706f726174696f6e3114301206035504070c0b53616e746120436c617261310b300906035504080c024341310b3009060355040613025553301e170d3138303532313130353031305a170d3333303532313130353031305a30703122302006035504030c19496e74656c205347582050434b20506c6174666f726d204341311a3018060355040a0c11496e74656c20436f72706f726174696f6e3114301206035504070c0b53616e746120436c617261310b300906035504080c024341310b30090603550406130255533059301306072a8648ce3d020106082a8648ce3d0301070342000435207feeddb595748ed82bb3a71c3be1e241ef61320c6816e6b5c2b71dad5532eaea12a4eb3f948916429ea47ba6c3af82a15e4b19664e52657939a2d96633dea381bb3081b8301f0603551d2304183016801422650cd65a9d3489f383b49552bf501b392706ac30520603551d1f044b30493047a045a043864168747470733a2f2f6365727469666963617465732e7472757374656473657276696365732e696e74656c2e636f6d2f496e74656c534758526f6f7443412e646572301d0603551d0e04160414956f5dcdbd1be1e94049c9d4f433ce01570bde54300e0603551d0f0101ff04040302010630120603551d130101ff040830060101ff020100300a06082a8648ce3d040302034700304402205ec5648b4c3e8ba558196dd417fdb6b9a5ded182438f551e9c0f938c3d5a8b970220261bd520260f9c647d3569be8e14a32892631ac358b994478088f4d2b27cf37e000000000000",
        "nonce": "0xa",
        "chainId": "0x66eee"
      },
      "additionalContracts": [],
      "isFixedGasLimit": false
    },
    {
      "hash": "0x8aadce8a5635aa584a5e3bfe04bb16363122e5714d01046608cba9d1dd60b313",
      "transactionType": "CALL",
      "contractName": null,
      "contractAddress": "0x0c5ef39256dcc4442d55a74ef272552d0a171e94",
      "function": "upsertEnclaveIdentity(uint256,uint256,(string,bytes))",
      "arguments": [
        "0",
        "3",
        "(\"{\\\"id\\\":\\\"QE\\\",\\\"version\\\":2,\\\"issueDate\\\":\\\"2024-04-29T02:24:40Z\\\",\\\"nextUpdate\\\":\\\"2024-05-29T02:24:40Z\\\",\\\"tcbEvaluationDataNumber\\\":16,\\\"miscselect\\\":\\\"00000000\\\",\\\"miscselectMask\\\":\\\"FFFFFFFF\\\",\\\"attributes\\\":\\\"11000000000000000000000000000000\\\",\\\"attributesMask\\\":\\\"FBFFFFFFFFFFFFFF0000000000000000\\\",\\\"mrsigner\\\":\\\"8C4F5775D796503E96137F77C68A829A0056AC8DED70140B081B094490C57BFF\\\",\\\"isvprodid\\\":1,\\\"tcbLevels\\\":[{\\\"tcb\\\":{\\\"isvsvn\\\":8},\\\"tcbDate\\\":\\\"2023-08-09T00:00:00Z\\\",\\\"tcbStatus\\\":\\\"UpToDate\\\"},{\\\"tcb\\\":{\\\"isvsvn\\\":6},\\\"tcbDate\\\":\\\"2021-11-10T00:00:00Z\\\",\\\"tcbStatus\\\":\\\"OutOfDate\\\"},{\\\"tcb\\\":{\\\"isvsvn\\\":5},\\\"tcbDate\\\":\\\"2020-11-11T00:00:00Z\\\",\\\"tcbStatus\\\":\\\"OutOfDate\\\"},{\\\"tcb\\\":{\\\"isvsvn\\\":4},\\\"tcbDate\\\":\\\"2019-11-13T00:00:00Z\\\",\\\"tcbStatus\\\":\\\"OutOfDate\\\"},{\\\"tcb\\\":{\\\"isvsvn\\\":2},\\\"tcbDate\\\":\\\"2019-05-15T00:00:00Z\\\",\\\"tcbStatus\\\":\\\"OutOfDate\\\"},{\\\"tcb\\\":{\\\"isvsvn\\\":1},\\\"tcbDate\\\":\\\"2018-08-15T00:00:00Z\\\",\\\"tcbStatus\\\":\\\"OutOfDate\\\"}]}\", 0xd841720b42dc51c8a9979c780a7dfe26c1be245da4b0c5d94c295c39305491a5b121f92fd89069b162bb5b28421a4ae2c82b6fc7cf88a6edb3ee614661eb984d)"
      ],
      "transaction": {
        "from": "0x95d06b395f04dc1bbd0ce9fcc501d7044ea25dad",
        "to": "0x0c5ef39256dcc4442d55a74ef272552d0a171e94",
        "gas": "0x2836f8",
        "value": "0x0",
        "input": "0x30f704ea000000000000000000000000000000000000000000000000000000000000000000000000000000000000000000000000000000000000000000000000000000030000000000000000000000000000000000000000000000000000000000000060000000000000000000000000000000000000000000000000000000000000004000000000000000000000000000000000000000000000000000000000000003c000000000000000000000000000000000000000000000000000000000000003507b226964223a225145222c2276657273696f6e223a322c22697373756544617465223a22323032342d30342d32395430323a32343a34305a222c226e657874557064617465223a22323032342d30352d32395430323a32343a34305a222c227463624576616c756174696f6e446174614e756d626572223a31362c226d69736373656c656374223a223030303030303030222c226d69736373656c6563744d61736b223a224646464646464646222c2261747472696275746573223a223131303030303030303030303030303030303030303030303030303030303030222c22617474726962757465734d61736b223a224642464646464646464646464646464630303030303030303030303030303030222c226d727369676e6572223a2238433446353737354437393635303345393631333746373743363841383239413030353641433844454437303134304230383142303934343930433537424646222c2269737670726f646964223a312c227463624c6576656c73223a5b7b22746362223a7b2269737673766e223a387d2c2274636244617465223a22323032332d30382d30395430303a30303a30305a222c22746362537461747573223a225570546f44617465227d2c7b22746362223a7b2269737673766e223a367d2c2274636244617465223a22323032312d31312d31305430303a30303a30305a222c22746362537461747573223a224f75744f6644617465227d2c7b22746362223a7b2269737673766e223a357d2c2274636244617465223a22323032302d31312d31315430303a30303a30305a222c22746362537461747573223a224f75744f6644617465227d2c7b22746362223a7b2269737673766e223a347d2c2274636244617465223a22323031392d31312d31335430303a30303a30305a222c22746362537461747573223a224f75744f6644617465227d2c7b22746362223a7b2269737673766e223a327d2c2274636244617465223a22323031392d30352d31355430303a30303a30305a222c22746362537461747573223a224f75744f6644617465227d2c7b22746362223a7b2269737673766e223a317d2c2274636244617465223a22323031382d30382d31355430303a30303a30305a222c22746362537461747573223a224f75744f6644617465227d5d7d000000000000000000000000000000000000000000000000000000000000000000000000000000000000000000000040d841720b42dc51c8a9979c780a7dfe26c1be245da4b0c5d94c295c39305491a5b121f92fd89069b162bb5b28421a4ae2c82b6fc7cf88a6edb3ee614661eb984d",
        "nonce": "0xb",
        "chainId": "0x66eee"
      },
      "additionalContracts": [],
      "isFixedGasLimit": false
    }
  ],
  "receipts": [
    {
      "status": "0x1",
      "cumulativeGasUsed": "0xf50bb",
      "logs": [],
      "logsBloom": "0x00000000000000000000000000000000000000000000000000000000000000000000000000000000000000000000000000000000000000000000000000000000000000000000000000000000000000000000000000000000000000000000000000000000000000000000000000000000000000000000000000000000000000000000000000000000000000000000000000000000000000000000000000000000000000000000000000000000000000000000000000000000000000000000000000000000000000000000000000000000000000000000000000000000000000000000000000000000000000000000000000000000000000000000000000000000",
      "type": "0x2",
      "transactionHash": "0x43ad278452169fe3da85bcb75d0a5722011b791b19539e4a9dd7c6195653885f",
      "transactionIndex": "0x4",
      "blockHash": "0x63da55413591f7818ba5afac889d24b993bd77a34afdcde36d1d819f7162e64c",
      "blockNumber": "0x272a787",
      "gasUsed": "0x9882c",
      "effectiveGasPrice": "0x37c04ef0",
      "from": "0x95d06b395f04dc1bbd0ce9fcc501d7044ea25dad",
      "to": "0x0c5ef39256dcc4442d55a74ef272552d0a171e94",
      "contractAddress": null,
      "gasUsedForL1": "0x10b5",
      "l1BlockNumber": "0x593491"
    },
    {
      "status": "0x1",
      "cumulativeGasUsed": "0x20e2b2",
      "logs": [],
      "logsBloom": "0x00000000000000000000000000000000000000000000000000000000000000000000000000000000000000000000000000000000000000000000000000000000000000000000000000000000000000000000000000000000000000000000000000000000000000000000000000000000000000000000000000000000000000000000000000000000000000000000000000000000000000000000000000000000000000000000000000000000000000000000000000000000000000000000000000000000000000000000000000000000000000000000000000000000000000000000000000000000000000000000000000000000000000000000000000000000",
      "type": "0x2",
      "transactionHash": "0x945024c0af500a65b688eca8d6af725f72e14ac4109bf51aaa84797d1334e3bb",
      "transactionIndex": "0x5",
      "blockHash": "0x320962b581319660cba80d72243969bd3a741cd240a70129a598da052a35242b",
      "blockNumber": "0x272a7a8",
      "gasUsed": "0x97ee1",
      "effectiveGasPrice": "0x38163720",
      "from": "0x95d06b395f04dc1bbd0ce9fcc501d7044ea25dad",
      "to": "0x0c5ef39256dcc4442d55a74ef272552d0a171e94",
      "contractAddress": null,
      "gasUsedForL1": "0x114d",
      "l1BlockNumber": "0x593492"
    },
    {
      "status": "0x1",
      "cumulativeGasUsed": "0x98126",
      "logs": [],
      "logsBloom": "0x00000000000000000000000000000000000000000000000000000000000000000000000000000000000000000000000000000000000000000000000000000000000000000000000000000000000000000000000000000000000000000000000000000000000000000000000000000000000000000000000000000000000000000000000000000000000000000000000000000000000000000000000000000000000000000000000000000000000000000000000000000000000000000000000000000000000000000000000000000000000000000000000000000000000000000000000000000000000000000000000000000000000000000000000000000000",
      "type": "0x2",
      "transactionHash": "0x5ffea0d91c671cd952be90eb521fe5c6e591a7642485fdc0dc106eeced2e5032",
      "transactionIndex": "0x1",
      "blockHash": "0x91c15576719ce61706d9b3de033f7a8356b4cb45333ac9869b6889c867b1e515",
      "blockNumber": "0x272a7c9",
      "gasUsed": "0x98126",
      "effectiveGasPrice": "0x388c9fa0",
      "from": "0x95d06b395f04dc1bbd0ce9fcc501d7044ea25dad",
      "to": "0x0c5ef39256dcc4442d55a74ef272552d0a171e94",
      "contractAddress": null,
      "gasUsedForL1": "0x11ae",
      "l1BlockNumber": "0x593492"
    },
    {
      "status": "0x1",
      "cumulativeGasUsed": "0x1ea6cb",
      "logs": [],
      "logsBloom": "0x00000000000000000000000000000000000000000000000000000000000000000000000000000000000000000000000000000000000000000000000000000000000000000000000000000000000000000000000000000000000000000000000000000000000000000000000000000000000000000000000000000000000000000000000000000000000000000000000000000000000000000000000000000000000000000000000000000000000000000000000000000000000000000000000000000000000000000000000000000000000000000000000000000000000000000000000000000000000000000000000000000000000000000000000000000000",
      "type": "0x2",
      "transactionHash": "0x8aadce8a5635aa584a5e3bfe04bb16363122e5714d01046608cba9d1dd60b313",
      "transactionIndex": "0x1",
      "blockHash": "0xa2a0f85e96741bc16a51192a1f7c4001568b8ffb63f17a7708572f8585e4d154",
      "blockNumber": "0x272a7eb",
      "gasUsed": "0x1ea6cb",
      "effectiveGasPrice": "0x38026100",
      "from": "0x95d06b395f04dc1bbd0ce9fcc501d7044ea25dad",
      "to": "0x0c5ef39256dcc4442d55a74ef272552d0a171e94",
      "contractAddress": null,
      "gasUsedForL1": "0xf88",
      "l1BlockNumber": "0x593493"
    }
  ],
  "libraries": [],
  "pending": [],
  "returns": {},
  "timestamp": 1714968777,
  "chain": 421614,
  "commit": "09ea49f"
}