{
  "transactions": [
    {
      "hash": "0xe446a4a8bd3350d8361dc8214f893430e52b16a29d452519f62f34f35788b0c5",
      "transactionType": "CALL",
      "contractName": null,
      "contractAddress": "0xeace48c11258ec79c941daee80343298dc084be3",
      "function": "upsertPcsCertificates(uint8,bytes)",
      "arguments": [
        "0",
        "0x3082028f30820234a003020102021422650cd65a9d3489f383b49552bf501b392706ac300a06082a8648ce3d0403023068311a301806035504030c11496e74656c2053475820526f6f74204341311a3018060355040a0c11496e74656c20436f72706f726174696f6e3114301206035504070c0b53616e746120436c617261310b300906035504080c024341310b3009060355040613025553301e170d3138303532313130343531305a170d3439313233313233353935395a3068311a301806035504030c11496e74656c2053475820526f6f74204341311a3018060355040a0c11496e74656c20436f72706f726174696f6e3114301206035504070c0b53616e746120436c617261310b300906035504080c024341310b30090603550406130255533059301306072a8648ce3d020106082a8648ce3d030107034200040ba9c4c0c0c86193a3fe23d6b02cda10a8bbd4e88e48b4458561a36e705525f567918e2edc88e40d860bd0cc4ee26aacc988e505a953558c453f6b0904ae7394a381bb3081b8301f0603551d2304183016801422650cd65a9d3489f383b49552bf501b392706ac30520603551d1f044b30493047a045a043864168747470733a2f2f6365727469666963617465732e7472757374656473657276696365732e696e74656c2e636f6d2f496e74656c534758526f6f7443412e646572301d0603551d0e0416041422650cd65a9d3489f383b49552bf501b392706ac300e0603551d0f0101ff04040302010630120603551d130101ff040830060101ff020101300a06082a8648ce3d0403020349003046022100e5bfe50911f92f428920dc368a302ee3d12ec5867ff622ec6497f78060c13c20022100e09d25ac7a0cb3e5e8e68fec5fa3bd416c47440bd950639d450edcbea4576aa2"
      ],
      "transaction": {
        "from": "0x95d06b395f04dc1bbd0ce9fcc501d7044ea25dad",
        "to": "0xeace48c11258ec79c941daee80343298dc084be3",
        "gas": "0x23d497",
        "value": "0x0",
        "input": "0x3b3954550000000000000000000000000000000000000000000000000000000000000000000000000000000000000000000000000000000000000000000000000000004000000000000000000000000000000000000000000000000000000000000002933082028f30820234a003020102021422650cd65a9d3489f383b49552bf501b392706ac300a06082a8648ce3d0403023068311a301806035504030c11496e74656c2053475820526f6f74204341311a3018060355040a0c11496e74656c20436f72706f726174696f6e3114301206035504070c0b53616e746120436c617261310b300906035504080c024341310b3009060355040613025553301e170d3138303532313130343531305a170d3439313233313233353935395a3068311a301806035504030c11496e74656c2053475820526f6f74204341311a3018060355040a0c11496e74656c20436f72706f726174696f6e3114301206035504070c0b53616e746120436c617261310b300906035504080c024341310b30090603550406130255533059301306072a8648ce3d020106082a8648ce3d030107034200040ba9c4c0c0c86193a3fe23d6b02cda10a8bbd4e88e48b4458561a36e705525f567918e2edc88e40d860bd0cc4ee26aacc988e505a953558c453f6b0904ae7394a381bb3081b8301f0603551d2304183016801422650cd65a9d3489f383b49552bf501b392706ac30520603551d1f044b30493047a045a043864168747470733a2f2f6365727469666963617465732e7472757374656473657276696365732e696e74656c2e636f6d2f496e74656c534758526f6f7443412e646572301d0603551d0e0416041422650cd65a9d3489f383b49552bf501b392706ac300e0603551d0f0101ff04040302010630120603551d130101ff040830060101ff020101300a06082a8648ce3d0403020349003046022100e5bfe50911f92f428920dc368a302ee3d12ec5867ff622ec6497f78060c13c20022100e09d25ac7a0cb3e5e8e68fec5fa3bd416c47440bd950639d450edcbea4576aa200000000000000000000000000",
        "nonce": "0x21",
        "chainId": "0x66eee"
      },
      "additionalContracts": [],
      "isFixedGasLimit": false
    },
    {
      "hash": "0xf9f217dfc6308b7e97956c24e6d3ba19e5dbdd5489c50be8617d08e41a45cad8",
      "transactionType": "CALL",
      "contractName": null,
      "contractAddress": "0xeace48c11258ec79c941daee80343298dc084be3",
      "function": "upsertPcsCertificates(uint8,bytes)",
      "arguments": [
        "3",
        "0x3082028b30820232a00302010202147e3882d5fb55294a40498e458403e91491bdf455300a06082a8648ce3d0403023068311a301806035504030c11496e74656c2053475820526f6f74204341311a3018060355040a0c11496e74656c20436f72706f726174696f6e3114301206035504070c0b53616e746120436c617261310b300906035504080c024341310b3009060355040613025553301e170d3138303532313130353031305a170d3235303532313130353031305a306c311e301c06035504030c15496e74656c2053475820544342205369676e696e67311a3018060355040a0c11496e74656c20436f72706f726174696f6e3114301206035504070c0b53616e746120436c617261310b300906035504080c024341310b30090603550406130255533059301306072a8648ce3d020106082a8648ce3d0301070342000443451bcc73c9d5917caf766e61af3fe98087dd4f13257b261e851897799dd13d6811fb47713803bb9bae587fccddc2e31be9a28b86962acc6daf96da58eeca96a381b53081b2301f0603551d2304183016801422650cd65a9d3489f383b49552bf501b392706ac30520603551d1f044b30493047a045a043864168747470733a2f2f6365727469666963617465732e7472757374656473657276696365732e696e74656c2e636f6d2f496e74656c534758526f6f7443412e646572301d0603551d0e041604147e3882d5fb55294a40498e458403e91491bdf455300e0603551d0f0101ff0404030206c0300c0603551d130101ff04023000300a06082a8648ce3d040302034700304402201f42f3038037f226c43b46002576e3a29caa36a064e47493272dc81aec1862550220237ed6eb346b0653c607db5d5d46260da0f3eed7d669ff37bc26686e8c1d2807"
      ],
      "transaction": {
        "from": "0x95d06b395f04dc1bbd0ce9fcc501d7044ea25dad",
        "to": "0xeace48c11258ec79c941daee80343298dc084be3",
        "gas": "0x24e0f5",
        "value": "0x0",
        "input": "0x3b39545500000000000000000000000000000000000000000000000000000000000000030000000000000000000000000000000000000000000000000000000000000040000000000000000000000000000000000000000000000000000000000000028f3082028b30820232a00302010202147e3882d5fb55294a40498e458403e91491bdf455300a06082a8648ce3d0403023068311a301806035504030c11496e74656c2053475820526f6f74204341311a3018060355040a0c11496e74656c20436f72706f726174696f6e3114301206035504070c0b53616e746120436c617261310b300906035504080c024341310b3009060355040613025553301e170d3138303532313130353031305a170d3235303532313130353031305a306c311e301c06035504030c15496e74656c2053475820544342205369676e696e67311a3018060355040a0c11496e74656c20436f72706f726174696f6e3114301206035504070c0b53616e746120436c617261310b300906035504080c024341310b30090603550406130255533059301306072a8648ce3d020106082a8648ce3d0301070342000443451bcc73c9d5917caf766e61af3fe98087dd4f13257b261e851897799dd13d6811fb47713803bb9bae587fccddc2e31be9a28b86962acc6daf96da58eeca96a381b53081b2301f0603551d2304183016801422650cd65a9d3489f383b49552bf501b392706ac30520603551d1f044b30493047a045a043864168747470733a2f2f6365727469666963617465732e7472757374656473657276696365732e696e74656c2e636f6d2f496e74656c534758526f6f7443412e646572301d0603551d0e041604147e3882d5fb55294a40498e458403e91491bdf455300e0603551d0f0101ff0404030206c0300c0603551d130101ff04023000300a06082a8648ce3d040302034700304402201f42f3038037f226c43b46002576e3a29caa36a064e47493272dc81aec1862550220237ed6eb346b0653c607db5d5d46260da0f3eed7d669ff37bc26686e8c1d28070000000000000000000000000000000000",
        "nonce": "0x22",
        "chainId": "0x66eee"
      },
      "additionalContracts": [],
      "isFixedGasLimit": false
    },
    {
      "hash": "0x95e169e4e5bf49af397cfae9498e0af059e2c1e10e2fb26599ad54a989813fff",
      "transactionType": "CALL",
      "contractName": null,
      "contractAddress": "0xeace48c11258ec79c941daee80343298dc084be3",
      "function": "upsertPcsCertificates(uint8,bytes)",
      "arguments": [
        "2",
        "0x308202963082023da003020102021500956f5dcdbd1be1e94049c9d4f433ce01570bde54300a06082a8648ce3d0403023068311a301806035504030c11496e74656c2053475820526f6f74204341311a3018060355040a0c11496e74656c20436f72706f726174696f6e3114301206035504070c0b53616e746120436c617261310b300906035504080c024341310b3009060355040613025553301e170d3138303532313130353031305a170d3333303532313130353031305a30703122302006035504030c19496e74656c205347582050434b20506c6174666f726d204341311a3018060355040a0c11496e74656c20436f72706f726174696f6e3114301206035504070c0b53616e746120436c617261310b300906035504080c024341310b30090603550406130255533059301306072a8648ce3d020106082a8648ce3d0301070342000435207feeddb595748ed82bb3a71c3be1e241ef61320c6816e6b5c2b71dad5532eaea12a4eb3f948916429ea47ba6c3af82a15e4b19664e52657939a2d96633dea381bb3081b8301f0603551d2304183016801422650cd65a9d3489f383b49552bf501b392706ac30520603551d1f044b30493047a045a043864168747470733a2f2f6365727469666963617465732e7472757374656473657276696365732e696e74656c2e636f6d2f496e74656c534758526f6f7443412e646572301d0603551d0e04160414956f5dcdbd1be1e94049c9d4f433ce01570bde54300e0603551d0f0101ff04040302010630120603551d130101ff040830060101ff020100300a06082a8648ce3d040302034700304402205ec5648b4c3e8ba558196dd417fdb6b9a5ded182438f551e9c0f938c3d5a8b970220261bd520260f9c647d3569be8e14a32892631ac358b994478088f4d2b27cf37e"
      ],
      "transaction": {
        "from": "0x95d06b395f04dc1bbd0ce9fcc501d7044ea25dad",
        "to": "0xeace48c11258ec79c941daee80343298dc084be3",
        "gas": "0x253e99",
        "value": "0x0",
        "input": "0x3b39545500000000000000000000000000000000000000000000000000000000000000020000000000000000000000000000000000000000000000000000000000000040000000000000000000000000000000000000000000000000000000000000029a308202963082023da003020102021500956f5dcdbd1be1e94049c9d4f433ce01570bde54300a06082a8648ce3d0403023068311a301806035504030c11496e74656c2053475820526f6f74204341311a3018060355040a0c11496e74656c20436f72706f726174696f6e3114301206035504070c0b53616e746120436c617261310b300906035504080c024341310b3009060355040613025553301e170d3138303532313130353031305a170d3333303532313130353031305a30703122302006035504030c19496e74656c205347582050434b20506c6174666f726d204341311a3018060355040a0c11496e74656c20436f72706f726174696f6e3114301206035504070c0b53616e746120436c617261310b300906035504080c024341310b30090603550406130255533059301306072a8648ce3d020106082a8648ce3d0301070342000435207feeddb595748ed82bb3a71c3be1e241ef61320c6816e6b5c2b71dad5532eaea12a4eb3f948916429ea47ba6c3af82a15e4b19664e52657939a2d96633dea381bb3081b8301f0603551d2304183016801422650cd65a9d3489f383b49552bf501b392706ac30520603551d1f044b30493047a045a043864168747470733a2f2f6365727469666963617465732e7472757374656473657276696365732e696e74656c2e636f6d2f496e74656c534758526f6f7443412e646572301d0603551d0e04160414956f5dcdbd1be1e94049c9d4f433ce01570bde54300e0603551d0f0101ff04040302010630120603551d130101ff040830060101ff020100300a06082a8648ce3d040302034700304402205ec5648b4c3e8ba558196dd417fdb6b9a5ded182438f551e9c0f938c3d5a8b970220261bd520260f9c647d3569be8e14a32892631ac358b994478088f4d2b27cf37e000000000000",
        "nonce": "0x23",
        "chainId": "0x66eee"
      },
      "additionalContracts": [],
      "isFixedGasLimit": false
    },
    {
      "hash": "0xe9c43503ae121378be57bb6546a5f0b5bb9b4873d4ae748b57e150a96ab09a4e",
      "transactionType": "CALL",
      "contractName": null,
      "contractAddress": "0xeace48c11258ec79c941daee80343298dc084be3",
      "function": "upsertFmspcTcb((string,bytes))",
      "arguments": [
        "(\"{\\\"version\\\":2,\\\"issueDate\\\":\\\"2024-05-02T02:44:30Z\\\",\\\"nextUpdate\\\":\\\"2024-06-01T02:44:30Z\\\",\\\"fmspc\\\":\\\"00606a000000\\\",\\\"pceId\\\":\\\"0000\\\",\\\"tcbType\\\":0,\\\"tcbEvaluationDataNumber\\\":16,\\\"tcbLevels\\\":[{\\\"tcb\\\":{\\\"sgxtcbcomp01svn\\\":12,\\\"sgxtcbcomp02svn\\\":12,\\\"sgxtcbcomp03svn\\\":3,\\\"sgxtcbcomp04svn\\\":3,\\\"sgxtcbcomp05svn\\\":255,\\\"sgxtcbcomp06svn\\\":255,\\\"sgxtcbcomp07svn\\\":1,\\\"sgxtcbcomp08svn\\\":0,\\\"sgxtcbcomp09svn\\\":0,\\\"sgxtcbcomp10svn\\\":0,\\\"sgxtcbcomp11svn\\\":0,\\\"sgxtcbcomp12svn\\\":0,\\\"sgxtcbcomp13svn\\\":0,\\\"sgxtcbcomp14svn\\\":0,\\\"sgxtcbcomp15svn\\\":0,\\\"sgxtcbcomp16svn\\\":0,\\\"pcesvn\\\":13},\\\"tcbDate\\\":\\\"2023-08-09T00:00:00Z\\\",\\\"tcbStatus\\\":\\\"SWHardeningNeeded\\\"},{\\\"tcb\\\":{\\\"sgxtcbcomp01svn\\\":12,\\\"sgxtcbcomp02svn\\\":12,\\\"sgxtcbcomp03svn\\\":3,\\\"sgxtcbcomp04svn\\\":3,\\\"sgxtcbcomp05svn\\\":255,\\\"sgxtcbcomp06svn\\\":255,\\\"sgxtcbcomp07svn\\\":0,\\\"sgxtcbcomp08svn\\\":0,\\\"sgxtcbcomp09svn\\\":0,\\\"sgxtcbcomp10svn\\\":0,\\\"sgxtcbcomp11svn\\\":0,\\\"sgxtcbcomp12svn\\\":0,\\\"sgxtcbcomp13svn\\\":0,\\\"sgxtcbcomp14svn\\\":0,\\\"sgxtcbcomp15svn\\\":0,\\\"sgxtcbcomp16svn\\\":0,\\\"pcesvn\\\":13},\\\"tcbDate\\\":\\\"2023-08-09T00:00:00Z\\\",\\\"tcbStatus\\\":\\\"ConfigurationAndSWHardeningNeeded\\\"},{\\\"tcb\\\":{\\\"sgxtcbcomp01svn\\\":11,\\\"sgxtcbcomp02svn\\\":11,\\\"sgxtcbcomp03svn\\\":3,\\\"sgxtcbcomp04svn\\\":3,\\\"sgxtcbcomp05svn\\\":255,\\\"sgxtcbcomp06svn\\\":255,\\\"sgxtcbcomp07svn\\\":1,\\\"sgxtcbcomp08svn\\\":0,\\\"sgxtcbcomp09svn\\\":0,\\\"sgxtcbcomp10svn\\\":0,\\\"sgxtcbcomp11svn\\\":0,\\\"sgxtcbcomp12svn\\\":0,\\\"sgxtcbcomp13svn\\\":0,\\\"sgxtcbcomp14svn\\\":0,\\\"sgxtcbcomp15svn\\\":0,\\\"sgxtcbcomp16svn\\\":0,\\\"pcesvn\\\":13},\\\"tcbDate\\\":\\\"2023-02-15T00:00:00Z\\\",\\\"tcbStatus\\\":\\\"OutOfDate\\\"},{\\\"tcb\\\":{\\\"sgxtcbcomp01svn\\\":11,\\\"sgxtcbcomp02svn\\\":11,\\\"sgxtcbcomp03svn\\\":3,\\\"sgxtcbcomp04svn\\\":3,\\\"sgxtcbcomp05svn\\\":255,\\\"sgxtcbcomp06svn\\\":255,\\\"sgxtcbcomp07svn\\\":0,\\\"sgxtcbcomp08svn\\\":0,\\\"sgxtcbcomp09svn\\\":0,\\\"sgxtcbcomp10svn\\\":0,\\\"sgxtcbcomp11svn\\\":0,\\\"sgxtcbcomp12svn\\\":0,\\\"sgxtcbcomp13svn\\\":0,\\\"sgxtcbcomp14svn\\\":0,\\\"sgxtcbcomp15svn\\\":0,\\\"sgxtcbcomp16svn\\\":0,\\\"pcesvn\\\":13},\\\"tcbDate\\\":\\\"2023-02-15T00:00:00Z\\\",\\\"tcbStatus\\\":\\\"OutOfDateConfigurationNeeded\\\"},{\\\"tcb\\\":{\\\"sgxtcbcomp01svn\\\":7,\\\"sgxtcbcomp02svn\\\":9,\\\"sgxtcbcomp03svn\\\":3,\\\"sgxtcbcomp04svn\\\":3,\\\"sgxtcbcomp05svn\\\":255,\\\"sgxtcbcomp06svn\\\":255,\\\"sgxtcbcomp07svn\\\":1,\\\"sgxtcbcomp08svn\\\":0,\\\"sgxtcbcomp09svn\\\":0,\\\"sgxtcbcomp10svn\\\":0,\\\"sgxtcbcomp11svn\\\":0,\\\"sgxtcbcomp12svn\\\":0,\\\"sgxtcbcomp13svn\\\":0,\\\"sgxtcbcomp14svn\\\":0,\\\"sgxtcbcomp15svn\\\":0,\\\"sgxtcbcomp16svn\\\":0,\\\"pcesvn\\\":13},\\\"tcbDate\\\":\\\"2022-08-10T00:00:00Z\\\",\\\"tcbStatus\\\":\\\"OutOfDate\\\"},{\\\"tcb\\\":{\\\"sgxtcbcomp01svn\\\":7,\\\"sgxtcbcomp02svn\\\":9,\\\"sgxtcbcomp03svn\\\":3,\\\"sgxtcbcomp04svn\\\":3,\\\"sgxtcbcomp05svn\\\":255,\\\"sgxtcbcomp06svn\\\":255,\\\"sgxtcbcomp07svn\\\":0,\\\"sgxtcbcomp08svn\\\":0,\\\"sgxtcbcomp09svn\\\":0,\\\"sgxtcbcomp10svn\\\":0,\\\"sgxtcbcomp11svn\\\":0,\\\"sgxtcbcomp12svn\\\":0,\\\"sgxtcbcomp13svn\\\":0,\\\"sgxtcbcomp14svn\\\":0,\\\"sgxtcbcomp15svn\\\":0,\\\"sgxtcbcomp16svn\\\":0,\\\"pcesvn\\\":13},\\\"tcbDate\\\":\\\"2022-08-10T00:00:00Z\\\",\\\"tcbStatus\\\":\\\"OutOfDateConfigurationNeeded\\\"},{\\\"tcb\\\":{\\\"sgxtcbcomp01svn\\\":4,\\\"sgxtcbcomp02svn\\\":4,\\\"sgxtcbcomp03svn\\\":3,\\\"sgxtcbcomp04svn\\\":3,\\\"sgxtcbcomp05svn\\\":255,\\\"sgxtcbcomp06svn\\\":255,\\\"sgxtcbcomp07svn\\\":0,\\\"sgxtcbcomp08svn\\\":0,\\\"sgxtcbcomp09svn\\\":0,\\\"sgxtcbcomp10svn\\\":0,\\\"sgxtcbcomp11svn\\\":0,\\\"sgxtcbcomp12svn\\\":0,\\\"sgxtcbcomp13svn\\\":0,\\\"sgxtcbcomp14svn\\\":0,\\\"sgxtcbcomp15svn\\\":0,\\\"sgxtcbcomp16svn\\\":0,\\\"pcesvn\\\":11},\\\"tcbDate\\\":\\\"2021-11-10T00:00:00Z\\\",\\\"tcbStatus\\\":\\\"OutOfDate\\\"},{\\\"tcb\\\":{\\\"sgxtcbcomp01svn\\\":4,\\\"sgxtcbcomp02svn\\\":4,\\\"sgxtcbcomp03svn\\\":3,\\\"sgxtcbcomp04svn\\\":3,\\\"sgxtcbcomp05svn\\\":255,\\\"sgxtcbcomp06svn\\\":255,\\\"sgxtcbcomp07svn\\\":0,\\\"sgxtcbcomp08svn\\\":0,\\\"sgxtcbcomp09svn\\\":0,\\\"sgxtcbcomp10svn\\\":0,\\\"sgxtcbcomp11svn\\\":0,\\\"sgxtcbcomp12svn\\\":0,\\\"sgxtcbcomp13svn\\\":0,\\\"sgxtcbcomp14svn\\\":0,\\\"sgxtcbcomp15svn\\\":0,\\\"sgxtcbcomp16svn\\\":0,\\\"pcesvn\\\":10},\\\"tcbDate\\\":\\\"2020-11-11T00:00:00Z\\\",\\\"tcbStatus\\\":\\\"OutOfDate\\\"},{\\\"tcb\\\":{\\\"sgxtcbcomp01svn\\\":4,\\\"sgxtcbcomp02svn\\\":4,\\\"sgxtcbcomp03svn\\\":3,\\\"sgxtcbcomp04svn\\\":3,\\\"sgxtcbcomp05svn\\\":255,\\\"sgxtcbcomp06svn\\\":255,\\\"sgxtcbcomp07svn\\\":0,\\\"sgxtcbcomp08svn\\\":0,\\\"sgxtcbcomp09svn\\\":0,\\\"sgxtcbcomp10svn\\\":0,\\\"sgxtcbcomp11svn\\\":0,\\\"sgxtcbcomp12svn\\\":0,\\\"sgxtcbcomp13svn\\\":0,\\\"sgxtcbcomp14svn\\\":0,\\\"sgxtcbcomp15svn\\\":0,\\\"sgxtcbcomp16svn\\\":0,\\\"pcesvn\\\":5},\\\"tcbDate\\\":\\\"2018-01-04T00:00:00Z\\\",\\\"tcbStatus\\\":\\\"OutOfDate\\\"}]}\", 0x6b924260de1ad4ee2004bb9b76a911e0ef95662eac8f41f364e01a793a5d39c530800b30c3695dea61c50e7cbc74224fb3726b9178b388d904160b59ab1e7787)"
      ],
      "transaction": {
        "from": "0x95d06b395f04dc1bbd0ce9fcc501d7044ea25dad",
        "to": "0xeace48c11258ec79c941daee80343298dc084be3",
        "gas": "0xcf7bb3",
        "value": "0x0",
        "input": "0xa8349fb7000000000000000000000000000000000000000000000000000000000000002000000000000000000000000000000000000000000000000000000000000000400000000000000000000000000000000000000000000000000000000000000fa00000000000000000000000000000000000000000000000000000000000000f297b2276657273696f6e223a322c22697373756544617465223a22323032342d30352d30325430323a34343a33305a222c226e657874557064617465223a22323032342d30362d30315430323a34343a33305a222c22666d737063223a22303036303661303030303030222c227063654964223a2230303030222c2274636254797065223a302c227463624576616c756174696f6e446174614e756d626572223a31362c227463624c6576656c73223a5b7b22746362223a7b22736778746362636f6d70303173766e223a31322c22736778746362636f6d70303273766e223a31322c22736778746362636f6d70303373766e223a332c22736778746362636f6d70303473766e223a332c22736778746362636f6d70303573766e223a3235352c22736778746362636f6d70303673766e223a3235352c22736778746362636f6d70303773766e223a312c22736778746362636f6d70303873766e223a302c22736778746362636f6d70303973766e223a302c22736778746362636f6d70313073766e223a302c22736778746362636f6d70313173766e223a302c22736778746362636f6d70313273766e223a302c22736778746362636f6d70313373766e223a302c22736778746362636f6d70313473766e223a302c22736778746362636f6d70313573766e223a302c22736778746362636f6d70313673766e223a302c2270636573766e223a31337d2c2274636244617465223a22323032332d30382d30395430303a30303a30305a222c22746362537461747573223a22535748617264656e696e674e6565646564227d2c7b22746362223a7b22736778746362636f6d70303173766e223a31322c22736778746362636f6d70303273766e223a31322c22736778746362636f6d70303373766e223a332c22736778746362636f6d70303473766e223a332c22736778746362636f6d70303573766e223a3235352c22736778746362636f6d70303673766e223a3235352c22736778746362636f6d70303773766e223a302c22736778746362636f6d70303873766e223a302c22736778746362636f6d70303973766e223a302c22736778746362636f6d70313073766e223a302c22736778746362636f6d70313173766e223a302c22736778746362636f6d70313273766e223a302c22736778746362636f6d70313373766e223a302c22736778746362636f6d70313473766e223a302c22736778746362636f6d70313573766e223a302c22736778746362636f6d70313673766e223a302c2270636573766e223a31337d2c2274636244617465223a22323032332d30382d30395430303a30303a30305a222c22746362537461747573223a22436f6e66696775726174696f6e416e64535748617264656e696e674e6565646564227d2c7b22746362223a7b22736778746362636f6d70303173766e223a31312c22736778746362636f6d70303273766e223a31312c22736778746362636f6d70303373766e223a332c22736778746362636f6d70303473766e223a332c22736778746362636f6d70303573766e223a3235352c22736778746362636f6d70303673766e223a3235352c22736778746362636f6d70303773766e223a312c22736778746362636f6d70303873766e223a302c22736778746362636f6d70303973766e223a302c22736778746362636f6d70313073766e223a302c22736778746362636f6d70313173766e223a302c22736778746362636f6d70313273766e223a302c22736778746362636f6d70313373766e223a302c22736778746362636f6d70313473766e223a302c22736778746362636f6d70313573766e223a302c22736778746362636f6d70313673766e223a302c2270636573766e223a31337d2c2274636244617465223a22323032332d30322d31355430303a30303a30305a222c22746362537461747573223a224f75744f6644617465227d2c7b22746362223a7b22736778746362636f6d70303173766e223a31312c22736778746362636f6d70303273766e223a31312c22736778746362636f6d70303373766e223a332c22736778746362636f6d70303473766e223a332c22736778746362636f6d70303573766e223a3235352c22736778746362636f6d70303673766e223a3235352c22736778746362636f6d70303773766e223a302c22736778746362636f6d70303873766e223a302c22736778746362636f6d70303973766e223a302c22736778746362636f6d70313073766e223a302c22736778746362636f6d70313173766e223a302c22736778746362636f6d70313273766e223a302c22736778746362636f6d70313373766e223a302c22736778746362636f6d70313473766e223a302c22736778746362636f6d70313573766e223a302c22736778746362636f6d70313673766e223a302c2270636573766e223a31337d2c2274636244617465223a22323032332d30322d31355430303a30303a30305a222c22746362537461747573223a224f75744f6644617465436f6e66696775726174696f6e4e6565646564227d2c7b22746362223a7b22736778746362636f6d70303173766e223a372c22736778746362636f6d70303273766e223a392c22736778746362636f6d70303373766e223a332c22736778746362636f6d70303473766e223a332c22736778746362636f6d70303573766e223a3235352c22736778746362636f6d70303673766e223a3235352c22736778746362636f6d70303773766e223a312c22736778746362636f6d70303873766e223a302c22736778746362636f6d70303973766e223a302c22736778746362636f6d70313073766e223a302c22736778746362636f6d70313173766e223a302c22736778746362636f6d70313273766e223a302c22736778746362636f6d70313373766e223a302c22736778746362636f6d70313473766e223a302c22736778746362636f6d70313573766e223a302c22736778746362636f6d70313673766e223a302c2270636573766e223a31337d2c2274636244617465223a22323032322d30382d31305430303a30303a30305a222c22746362537461747573223a224f75744f6644617465227d2c7b22746362223a7b22736778746362636f6d70303173766e223a372c22736778746362636f6d70303273766e223a392c22736778746362636f6d70303373766e223a332c22736778746362636f6d70303473766e223a332c22736778746362636f6d70303573766e223a3235352c22736778746362636f6d70303673766e223a3235352c22736778746362636f6d70303773766e223a302c22736778746362636f6d70303873766e223a302c22736778746362636f6d70303973766e223a302c22736778746362636f6d70313073766e223a302c22736778746362636f6d70313173766e223a302c22736778746362636f6d70313273766e223a302c22736778746362636f6d70313373766e223a302c22736778746362636f6d70313473766e223a302c22736778746362636f6d70313573766e223a302c22736778746362636f6d70313673766e223a302c2270636573766e223a31337d2c2274636244617465223a22323032322d30382d31305430303a30303a30305a222c22746362537461747573223a224f75744f6644617465436f6e66696775726174696f6e4e6565646564227d2c7b22746362223a7b22736778746362636f6d70303173766e223a342c22736778746362636f6d70303273766e223a342c22736778746362636f6d70303373766e223a332c22736778746362636f6d70303473766e223a332c22736778746362636f6d70303573766e223a3235352c22736778746362636f6d70303673766e223a3235352c22736778746362636f6d70303773766e223a302c22736778746362636f6d70303873766e223a302c22736778746362636f6d70303973766e223a302c22736778746362636f6d70313073766e223a302c22736778746362636f6d70313173766e223a302c22736778746362636f6d70313273766e223a302c22736778746362636f6d70313373766e223a302c22736778746362636f6d70313473766e223a302c22736778746362636f6d70313573766e223a302c22736778746362636f6d70313673766e223a302c2270636573766e223a31317d2c2274636244617465223a22323032312d31312d31305430303a30303a30305a222c22746362537461747573223a224f75744f6644617465227d2c7b22746362223a7b22736778746362636f6d70303173766e223a342c22736778746362636f6d70303273766e223a342c22736778746362636f6d70303373766e223a332c22736778746362636f6d70303473766e223a332c22736778746362636f6d70303573766e223a3235352c22736778746362636f6d70303673766e223a3235352c22736778746362636f6d70303773766e223a302c22736778746362636f6d70303873766e223a302c22736778746362636f6d70303973766e223a302c22736778746362636f6d70313073766e223a302c22736778746362636f6d70313173766e223a302c22736778746362636f6d70313273766e223a302c22736778746362636f6d70313373766e223a302c22736778746362636f6d70313473766e223a302c22736778746362636f6d70313573766e223a302c22736778746362636f6d70313673766e223a302c2270636573766e223a31307d2c2274636244617465223a22323032302d31312d31315430303a30303a30305a222c22746362537461747573223a224f75744f6644617465227d2c7b22746362223a7b22736778746362636f6d70303173766e223a342c22736778746362636f6d70303273766e223a342c22736778746362636f6d70303373766e223a332c22736778746362636f6d70303473766e223a332c22736778746362636f6d70303573766e223a3235352c22736778746362636f6d70303673766e223a3235352c22736778746362636f6d70303773766e223a302c22736778746362636f6d70303873766e223a302c22736778746362636f6d70303973766e223a302c22736778746362636f6d70313073766e223a302c22736778746362636f6d70313173766e223a302c22736778746362636f6d70313273766e223a302c22736778746362636f6d70313373766e223a302c22736778746362636f6d70313473766e223a302c22736778746362636f6d70313573766e223a302c22736778746362636f6d70313673766e223a302c2270636573766e223a357d2c2274636244617465223a22323031382d30312d30345430303a30303a30305a222c22746362537461747573223a224f75744f6644617465227d5d7d000000000000000000000000000000000000000000000000000000000000000000000000000000000000000000000000000000000000406b924260de1ad4ee2004bb9b76a911e0ef95662eac8f41f364e01a793a5d39c530800b30c3695dea61c50e7cbc74224fb3726b9178b388d904160b59ab1e7787",
        "nonce": "0x24",
        "chainId": "0x66eee"
      },
      "additionalContracts": [],
      "isFixedGasLimit": false
    },
    {
      "hash": "0xb0326ce546ea6a42e624f74ff9bfef92ff7f06d6d0d26a05fc46d5b38f6bcc34",
      "transactionType": "CALL",
      "contractName": null,
      "contractAddress": "0xeace48c11258ec79c941daee80343298dc084be3",
      "function": "upsertEnclaveIdentity(uint256,uint256,(string,bytes))",
      "arguments": [
        "0",
        "3",
        "(\"{\\\"id\\\":\\\"QE\\\",\\\"version\\\":2,\\\"issueDate\\\":\\\"2024-04-29T02:24:40Z\\\",\\\"nextUpdate\\\":\\\"2024-05-29T02:24:40Z\\\",\\\"tcbEvaluationDataNumber\\\":16,\\\"miscselect\\\":\\\"00000000\\\",\\\"miscselectMask\\\":\\\"FFFFFFFF\\\",\\\"attributes\\\":\\\"11000000000000000000000000000000\\\",\\\"attributesMask\\\":\\\"FBFFFFFFFFFFFFFF0000000000000000\\\",\\\"mrsigner\\\":\\\"8C4F5775D796503E96137F77C68A829A0056AC8DED70140B081B094490C57BFF\\\",\\\"isvprodid\\\":1,\\\"tcbLevels\\\":[{\\\"tcb\\\":{\\\"isvsvn\\\":8},\\\"tcbDate\\\":\\\"2023-08-09T00:00:00Z\\\",\\\"tcbStatus\\\":\\\"UpToDate\\\"},{\\\"tcb\\\":{\\\"isvsvn\\\":6},\\\"tcbDate\\\":\\\"2021-11-10T00:00:00Z\\\",\\\"tcbStatus\\\":\\\"OutOfDate\\\"},{\\\"tcb\\\":{\\\"isvsvn\\\":5},\\\"tcbDate\\\":\\\"2020-11-11T00:00:00Z\\\",\\\"tcbStatus\\\":\\\"OutOfDate\\\"},{\\\"tcb\\\":{\\\"isvsvn\\\":4},\\\"tcbDate\\\":\\\"2019-11-13T00:00:00Z\\\",\\\"tcbStatus\\\":\\\"OutOfDate\\\"},{\\\"tcb\\\":{\\\"isvsvn\\\":2},\\\"tcbDate\\\":\\\"2019-05-15T00:00:00Z\\\",\\\"tcbStatus\\\":\\\"OutOfDate\\\"},{\\\"tcb\\\":{\\\"isvsvn\\\":1},\\\"tcbDate\\\":\\\"2018-08-15T00:00:00Z\\\",\\\"tcbStatus\\\":\\\"OutOfDate\\\"}]}\", 0xd841720b42dc51c8a9979c780a7dfe26c1be245da4b0c5d94c295c39305491a5b121f92fd89069b162bb5b28421a4ae2c82b6fc7cf88a6edb3ee614661eb984d)"
      ],
      "transaction": {
        "from": "0x95d06b395f04dc1bbd0ce9fcc501d7044ea25dad",
        "to": "0xeace48c11258ec79c941daee80343298dc084be3",
        "gas": "0x3e9f53",
        "value": "0x0",
        "input": "0x30f704ea000000000000000000000000000000000000000000000000000000000000000000000000000000000000000000000000000000000000000000000000000000030000000000000000000000000000000000000000000000000000000000000060000000000000000000000000000000000000000000000000000000000000004000000000000000000000000000000000000000000000000000000000000003c000000000000000000000000000000000000000000000000000000000000003507b226964223a225145222c2276657273696f6e223a322c22697373756544617465223a22323032342d30342d32395430323a32343a34305a222c226e657874557064617465223a22323032342d30352d32395430323a32343a34305a222c227463624576616c756174696f6e446174614e756d626572223a31362c226d69736373656c656374223a223030303030303030222c226d69736373656c6563744d61736b223a224646464646464646222c2261747472696275746573223a223131303030303030303030303030303030303030303030303030303030303030222c22617474726962757465734d61736b223a224642464646464646464646464646464630303030303030303030303030303030222c226d727369676e6572223a2238433446353737354437393635303345393631333746373743363841383239413030353641433844454437303134304230383142303934343930433537424646222c2269737670726f646964223a312c227463624c6576656c73223a5b7b22746362223a7b2269737673766e223a387d2c2274636244617465223a22323032332d30382d30395430303a30303a30305a222c22746362537461747573223a225570546f44617465227d2c7b22746362223a7b2269737673766e223a367d2c2274636244617465223a22323032312d31312d31305430303a30303a30305a222c22746362537461747573223a224f75744f6644617465227d2c7b22746362223a7b2269737673766e223a357d2c2274636244617465223a22323032302d31312d31315430303a30303a30305a222c22746362537461747573223a224f75744f6644617465227d2c7b22746362223a7b2269737673766e223a347d2c2274636244617465223a22323031392d31312d31335430303a30303a30305a222c22746362537461747573223a224f75744f6644617465227d2c7b22746362223a7b2269737673766e223a327d2c2274636244617465223a22323031392d30352d31355430303a30303a30305a222c22746362537461747573223a224f75744f6644617465227d2c7b22746362223a7b2269737673766e223a317d2c2274636244617465223a22323031382d30382d31355430303a30303a30305a222c22746362537461747573223a224f75744f6644617465227d5d7d000000000000000000000000000000000000000000000000000000000000000000000000000000000000000000000040d841720b42dc51c8a9979c780a7dfe26c1be245da4b0c5d94c295c39305491a5b121f92fd89069b162bb5b28421a4ae2c82b6fc7cf88a6edb3ee614661eb984d",
        "nonce": "0x25",
        "chainId": "0x66eee"
      },
      "additionalContracts": [],
      "isFixedGasLimit": false
    },
    {
      "hash": "0x88fe6ca284282ce31551e2fe8bfd6bef447603fbdb44baa0977e0afe19cd8843",
      "transactionType": "CALL",
      "contractName": null,
      "contractAddress": "0xeace48c11258ec79c941daee80343298dc084be3",
      "function": "upsertRootCACrl(bytes)",
      "arguments": [
        "0x308201223081c8020101300a06082a8648ce3d0403023068311a301806035504030c11496e74656c2053475820526f6f74204341311a3018060355040a0c11496e74656c20436f72706f726174696f6e3114301206035504070c0b53616e746120436c617261310b300906035504080c024341310b3009060355040613025553170d3234303332303139313933305a170d3235303430333139313933305aa02f302d300a0603551d140403020101301f0603551d2304183016801422650cd65a9d3489f383b49552bf501b392706ac300a06082a8648ce3d0403020349003046022100e7606fef2da68785a0c39bc34ac344c9e2d6ed4b0223e79a6c6297d421b73784022100fc1587aece4296d5e9370fd6a444a72d03c598cb21dc8104c55b127b766ea82b"
      ],
      "transaction": {
        "from": "0x95d06b395f04dc1bbd0ce9fcc501d7044ea25dad",
        "to": "0xeace48c11258ec79c941daee80343298dc084be3",
        "gas": "0x17c5ce",
        "value": "0x0",
        "input": "0x6b1c539900000000000000000000000000000000000000000000000000000000000000200000000000000000000000000000000000000000000000000000000000000126308201223081c8020101300a06082a8648ce3d0403023068311a301806035504030c11496e74656c2053475820526f6f74204341311a3018060355040a0c11496e74656c20436f72706f726174696f6e3114301206035504070c0b53616e746120436c617261310b300906035504080c024341310b3009060355040613025553170d3234303332303139313933305a170d3235303430333139313933305aa02f302d300a0603551d140403020101301f0603551d2304183016801422650cd65a9d3489f383b49552bf501b392706ac300a06082a8648ce3d0403020349003046022100e7606fef2da68785a0c39bc34ac344c9e2d6ed4b0223e79a6c6297d421b73784022100fc1587aece4296d5e9370fd6a444a72d03c598cb21dc8104c55b127b766ea82b0000000000000000000000000000000000000000000000000000",
        "nonce": "0x26",
        "chainId": "0x66eee"
      },
      "additionalContracts": [],
      "isFixedGasLimit": false
    },
    {
      "hash": "0x805b0237b621f5602008444c7f01ef496539d21fceaf09713ea154f98ace872d",
      "transactionType": "CALL",
      "contractName": null,
      "contractAddress": "0xeace48c11258ec79c941daee80343298dc084be3",
      "function": "upsertPckCrl(uint8,bytes)",
      "arguments": [
        "1",
        "0x3082012a3081d1020101300a06082a8648ce3d04030230713123302106035504030c1a496e74656c205347582050434b2050726f636573736f72204341311a3018060355040a0c11496e74656c20436f72706f726174696f6e3114301206035504070c0b53616e746120436c617261310b300906035504080c024341310b3009060355040613025553170d3234303530383130353833345a170d3234303630373130353833345aa02f302d300a0603551d140403020101301f0603551d23041830168014d0e8aada75d7f92e4917983c7b1465d0d5f2594d300a06082a8648ce3d0403020348003045022100a36fd08b8d3989f849d9b132e9387228eae31300b0449891353e27a8d3a713e602202b165b902087e3e87cbccd45948c566b00a63676ef9f3e768a53d866d2a65deb"
      ],
      "transaction": {
        "from": "0x95d06b395f04dc1bbd0ce9fcc501d7044ea25dad",
        "to": "0xeace48c11258ec79c941daee80343298dc084be3",
        "gas": "0x18672a",
        "value": "0x0",
        "input": "0x08854e0400000000000000000000000000000000000000000000000000000000000000010000000000000000000000000000000000000000000000000000000000000040000000000000000000000000000000000000000000000000000000000000012e3082012a3081d1020101300a06082a8648ce3d04030230713123302106035504030c1a496e74656c205347582050434b2050726f636573736f72204341311a3018060355040a0c11496e74656c20436f72706f726174696f6e3114301206035504070c0b53616e746120436c617261310b300906035504080c024341310b3009060355040613025553170d3234303530383130353833345a170d3234303630373130353833345aa02f302d300a0603551d140403020101301f0603551d23041830168014d0e8aada75d7f92e4917983c7b1465d0d5f2594d300a06082a8648ce3d0403020348003045022100a36fd08b8d3989f849d9b132e9387228eae31300b0449891353e27a8d3a713e602202b165b902087e3e87cbccd45948c566b00a63676ef9f3e768a53d866d2a65deb000000000000000000000000000000000000",
        "nonce": "0x27",
        "chainId": "0x66eee"
      },
      "additionalContracts": [],
      "isFixedGasLimit": false
    },
    {
      "hash": "0x48e8deea5e9137c99226af624b10fb2a3afc8f8eec66e806d88612ac21ed8827",
      "transactionType": "CALL",
      "contractName": null,
      "contractAddress": "0xeace48c11258ec79c941daee80343298dc084be3",
      "function": "upsertPckCrl(uint8,bytes)",
      "arguments": [
        "2",
        "0x30820a6230820a08020101300a06082a8648ce3d04030230703122302006035504030c19496e74656c205347582050434b20506c6174666f726d204341311a3018060355040a0c11496e74656c20436f72706f726174696f6e3114301206035504070c0b53616e746120436c617261310b300906035504080c024341310b3009060355040613025553170d3234303530383130323130335a170d3234303630373130323130335a30820934303302146fc34e5023e728923435d61aa4b83c618166ad35170d3234303530383130323130335a300c300a0603551d1504030a01013034021500efae6e9715fca13b87e333e8261ed6d990a926ad170d3234303530383130323130335a300c300a0603551d1504030a01013034021500fd608648629cba73078b4d492f4b3ea741ad08cd170d3234303530383130323130335a300c300a0603551d1504030a010130340215008af924184e1d5afddd73c3d63a12f5e8b5737e56170d3234303530383130323130335a300c300a0603551d1504030a01013034021500b1257978cfa9ccdd0759abf8c5ca72fae3a78a9b170d3234303530383130323130335a300c300a0603551d1504030a01013033021474fea614a972be0e2843f2059835811ed872f9b3170d3234303530383130323130335a300c300a0603551d1504030a01013034021500f9c4ef56b3ab48d577e108baedf4bf88014214b9170d3234303530383130323130335a300c300a0603551d1504030a010130330214071de0778f9e5fc4f2878f30d6b07c9a30e6b30b170d3234303530383130323130335a300c300a0603551d1504030a01013034021500cde2424f972cea94ff239937f4d80c25029dd60b170d3234303530383130323130335a300c300a0603551d1504030a0101303302146c3319e5109b64507d3cf1132ce00349ef527319170d3234303530383130323130335a300c300a0603551d1504030a01013034021500df08d756b66a7497f43b5bb58ada04d3f4f7a937170d3234303530383130323130335a300c300a0603551d1504030a01013033021428af485b6cf67e409a39d5cb5aee4598f7a8fa7b170d3234303530383130323130335a300c300a0603551d1504030a01013034021500fb8b2daec092cada8aa9bc4ff2f1c20d0346668c170d3234303530383130323130335a300c300a0603551d1504030a01013034021500cd4850ac52bdcc69a6a6f058c8bc57bbd0b5f864170d3234303530383130323130335a300c300a0603551d1504030a01013034021500994dd3666f5275fb805f95dd02bd50cb2679d8ad170d3234303530383130323130335a300c300a0603551d1504030a0101303302140702136900252274d9035eedf5457462fad0ef4c170d3234303530383130323130335a300c300a0603551d1504030a01013033021461f2bf73e39b4e04aa27d801bd73d24319b5bf80170d3234303530383130323130335a300c300a0603551d1504030a0101303302143992be851b96902eff38959e6c2eff1b0651a4b5170d3234303530383130323130335a300c300a0603551d1504030a010130330214639f139a5040fdcff191e8a4fb1bf086ed603971170d3234303530383130323130335a300c300a0603551d1504030a01013034021500959d533f9249dc1e513544cdc830bf19b7f1f301170d3234303530383130323130335a300c300a0603551d1504030a0101303302140fda43a00b68ea79b7c2deaeac0b498bdfb2af90170d3234303530383130323130335a300c300a0603551d1504030a010130340215009d67753b81e47090aea763fbec4c4549bcdb9933170d3234303530383130323130335a300c300a0603551d1504030a01013033021434bfbb7a1d9c568147e118b614f7b76ed3ef68df170d3234303530383130323130335a300c300a0603551d1504030a0101303402150085d3c9381b77a7e04d119c9e5ad6749ff3ffab87170d3234303530383130323130335a300c300a0603551d1504030a0101303402150093887ca4411e7a923bd1fed2819b2949f201b5b4170d3234303530383130323130335a300c300a0603551d1504030a0101303302142498dc6283930996fd8bf23a37acbe26a3bed457170d3234303530383130323130335a300c300a0603551d1504030a010130340215008a66f1a749488667689cc3903ac54c662b712e73170d3234303530383130323130335a300c300a0603551d1504030a01013034021500afc13610bdd36cb7985d106481a880d3a01fda07170d3234303530383130323130335a300c300a0603551d1504030a01013034021500efe04b2c33d036aac96ca673bf1e9a47b64d5cbb170d3234303530383130323130335a300c300a0603551d1504030a0101303402150083d9ac8d8bb509d1c6c809ad712e8430559ed7f3170d3234303530383130323130335a300c300a0603551d1504030a0101303302147931fd50b5071c1bbfc5b7b6ded8b45b9d8b8529170d3234303530383130323130335a300c300a0603551d1504030a0101303302141fa20e2970bde5d57f7b8ddf8339484e1f1d0823170d3234303530383130323130335a300c300a0603551d1504030a0101303302141e87b2c3b32d8d23e411cef34197b95af0c8adf5170d3234303530383130323130335a300c300a0603551d1504030a010130340215009afd2ee90a473550a167d996911437c7502d1f09170d3234303530383130323130335a300c300a0603551d1504030a0101303302144481b0f11728a13b696d3ea9c770a0b15ec58dda170d3234303530383130323130335a300c300a0603551d1504030a01013034021500a7859f57982ef0e67d37bc8ef2ef5ac835ff1aa9170d3234303530383130323130335a300c300a0603551d1504030a0101303302147ae37748a9f912f4c63ba7ab07c593ce1d1d1181170d3234303530383130323130335a300c300a0603551d1504030a01013033021413884b33269938c195aa170fca75da177538df0b170d3234303530383130323130335a300c300a0603551d1504030a0101303302142c3cc6fe9279db1516d5ce39f2a898cda5a175e1170d3234303530383130323130335a300c300a0603551d1504030a010130330214717948687509234be979e4b7dce6f31bef64b68c170d3234303530383130323130335a300c300a0603551d1504030a010130340215009d76ef2c39c136e8658b6e7396b1d7445a27631f170d3234303530383130323130335a300c300a0603551d1504030a01013034021500c3e025fca995f36f59b48467939e3e34e6361a6f170d3234303530383130323130335a300c300a0603551d1504030a010130340215008c5f6b3257da05b17429e2e61ba965d67330606a170d3234303530383130323130335a300c300a0603551d1504030a01013034021500a17c51722ec1e0c3278fe8bdf052059cbec4e648170d3234303530383130323130335a300c300a0603551d1504030a0101a02f302d300a0603551d140403020101301f0603551d23041830168014956f5dcdbd1be1e94049c9d4f433ce01570bde54300a06082a8648ce3d040302034800304502200d28fef15d258e8a323c7e99ba18c6f11cb7d5c8dafb009433bf813cff85a93902210084350d0ded615d29b7a869df33cb22d8a6fbe0dd804103c33e490831d16849ad"
      ],
      "transaction": {
        "from": "0x95d06b395f04dc1bbd0ce9fcc501d7044ea25dad",
        "to": "0xeace48c11258ec79c941daee80343298dc084be3",
        "gas": "0x5c9bb5",
        "value": "0x0",
        "input": "0x08854e04000000000000000000000000000000000000000000000000000000000000000200000000000000000000000000000000000000000000000000000000000000400000000000000000000000000000000000000000000000000000000000000a6630820a6230820a08020101300a06082a8648ce3d04030230703122302006035504030c19496e74656c205347582050434b20506c6174666f726d204341311a3018060355040a0c11496e74656c20436f72706f726174696f6e3114301206035504070c0b53616e746120436c617261310b300906035504080c024341310b3009060355040613025553170d3234303530383130323130335a170d3234303630373130323130335a30820934303302146fc34e5023e728923435d61aa4b83c618166ad35170d3234303530383130323130335a300c300a0603551d1504030a01013034021500efae6e9715fca13b87e333e8261ed6d990a926ad170d3234303530383130323130335a300c300a0603551d1504030a01013034021500fd608648629cba73078b4d492f4b3ea741ad08cd170d3234303530383130323130335a300c300a0603551d1504030a010130340215008af924184e1d5afddd73c3d63a12f5e8b5737e56170d3234303530383130323130335a300c300a0603551d1504030a01013034021500b1257978cfa9ccdd0759abf8c5ca72fae3a78a9b170d3234303530383130323130335a300c300a0603551d1504030a01013033021474fea614a972be0e2843f2059835811ed872f9b3170d3234303530383130323130335a300c300a0603551d1504030a01013034021500f9c4ef56b3ab48d577e108baedf4bf88014214b9170d3234303530383130323130335a300c300a0603551d1504030a010130330214071de0778f9e5fc4f2878f30d6b07c9a30e6b30b170d3234303530383130323130335a300c300a0603551d1504030a01013034021500cde2424f972cea94ff239937f4d80c25029dd60b170d3234303530383130323130335a300c300a0603551d1504030a0101303302146c3319e5109b64507d3cf1132ce00349ef527319170d3234303530383130323130335a300c300a0603551d1504030a01013034021500df08d756b66a7497f43b5bb58ada04d3f4f7a937170d3234303530383130323130335a300c300a0603551d1504030a01013033021428af485b6cf67e409a39d5cb5aee4598f7a8fa7b170d3234303530383130323130335a300c300a0603551d1504030a01013034021500fb8b2daec092cada8aa9bc4ff2f1c20d0346668c170d3234303530383130323130335a300c300a0603551d1504030a01013034021500cd4850ac52bdcc69a6a6f058c8bc57bbd0b5f864170d3234303530383130323130335a300c300a0603551d1504030a01013034021500994dd3666f5275fb805f95dd02bd50cb2679d8ad170d3234303530383130323130335a300c300a0603551d1504030a0101303302140702136900252274d9035eedf5457462fad0ef4c170d3234303530383130323130335a300c300a0603551d1504030a01013033021461f2bf73e39b4e04aa27d801bd73d24319b5bf80170d3234303530383130323130335a300c300a0603551d1504030a0101303302143992be851b96902eff38959e6c2eff1b0651a4b5170d3234303530383130323130335a300c300a0603551d1504030a010130330214639f139a5040fdcff191e8a4fb1bf086ed603971170d3234303530383130323130335a300c300a0603551d1504030a01013034021500959d533f9249dc1e513544cdc830bf19b7f1f301170d3234303530383130323130335a300c300a0603551d1504030a0101303302140fda43a00b68ea79b7c2deaeac0b498bdfb2af90170d3234303530383130323130335a300c300a0603551d1504030a010130340215009d67753b81e47090aea763fbec4c4549bcdb9933170d3234303530383130323130335a300c300a0603551d1504030a01013033021434bfbb7a1d9c568147e118b614f7b76ed3ef68df170d3234303530383130323130335a300c300a0603551d1504030a0101303402150085d3c9381b77a7e04d119c9e5ad6749ff3ffab87170d3234303530383130323130335a300c300a0603551d1504030a0101303402150093887ca4411e7a923bd1fed2819b2949f201b5b4170d3234303530383130323130335a300c300a0603551d1504030a0101303302142498dc6283930996fd8bf23a37acbe26a3bed457170d3234303530383130323130335a300c300a0603551d1504030a010130340215008a66f1a749488667689cc3903ac54c662b712e73170d3234303530383130323130335a300c300a0603551d1504030a01013034021500afc13610bdd36cb7985d106481a880d3a01fda07170d3234303530383130323130335a300c300a0603551d1504030a01013034021500efe04b2c33d036aac96ca673bf1e9a47b64d5cbb170d3234303530383130323130335a300c300a0603551d1504030a0101303402150083d9ac8d8bb509d1c6c809ad712e8430559ed7f3170d3234303530383130323130335a300c300a0603551d1504030a0101303302147931fd50b5071c1bbfc5b7b6ded8b45b9d8b8529170d3234303530383130323130335a300c300a0603551d1504030a0101303302141fa20e2970bde5d57f7b8ddf8339484e1f1d0823170d3234303530383130323130335a300c300a0603551d1504030a0101303302141e87b2c3b32d8d23e411cef34197b95af0c8adf5170d3234303530383130323130335a300c300a0603551d1504030a010130340215009afd2ee90a473550a167d996911437c7502d1f09170d3234303530383130323130335a300c300a0603551d1504030a0101303302144481b0f11728a13b696d3ea9c770a0b15ec58dda170d3234303530383130323130335a300c300a0603551d1504030a01013034021500a7859f57982ef0e67d37bc8ef2ef5ac835ff1aa9170d3234303530383130323130335a300c300a0603551d1504030a0101303302147ae37748a9f912f4c63ba7ab07c593ce1d1d1181170d3234303530383130323130335a300c300a0603551d1504030a01013033021413884b33269938c195aa170fca75da177538df0b170d3234303530383130323130335a300c300a0603551d1504030a0101303302142c3cc6fe9279db1516d5ce39f2a898cda5a175e1170d3234303530383130323130335a300c300a0603551d1504030a010130330214717948687509234be979e4b7dce6f31bef64b68c170d3234303530383130323130335a300c300a0603551d1504030a010130340215009d76ef2c39c136e8658b6e7396b1d7445a27631f170d3234303530383130323130335a300c300a0603551d1504030a01013034021500c3e025fca995f36f59b48467939e3e34e6361a6f170d3234303530383130323130335a300c300a0603551d1504030a010130340215008c5f6b3257da05b17429e2e61ba965d67330606a170d3234303530383130323130335a300c300a0603551d1504030a01013034021500a17c51722ec1e0c3278fe8bdf052059cbec4e648170d3234303530383130323130335a300c300a0603551d1504030a0101a02f302d300a0603551d140403020101301f0603551d23041830168014956f5dcdbd1be1e94049c9d4f433ce01570bde54300a06082a8648ce3d040302034800304502200d28fef15d258e8a323c7e99ba18c6f11cb7d5c8dafb009433bf813cff85a93902210084350d0ded615d29b7a869df33cb22d8a6fbe0dd804103c33e490831d16849ad0000000000000000000000000000000000000000000000000000",
        "nonce": "0x28",
        "chainId": "0x66eee"
      },
      "additionalContracts": [],
      "isFixedGasLimit": false
    }
  ],
  "receipts": [
    {
      "status": "0x1",
      "cumulativeGasUsed": "0x190454",
      "logs": [],
      "logsBloom": "0x00000000000000000000000000000000000000000000000000000000000000000000000000000000000000000000000000000000000000000000000000000000000000000000000000000000000000000000000000000000000000000000000000000000000000000000000000000000000000000000000000000000000000000000000000000000000000000000000000000000000000000000000000000000000000000000000000000000000000000000000000000000000000000000000000000000000000000000000000000000000000000000000000000000000000000000000000000000000000000000000000000000000000000000000000000000",
      "type": "0x2",
      "transactionHash": "0xe446a4a8bd3350d8361dc8214f893430e52b16a29d452519f62f34f35788b0c5",
      "transactionIndex": "0x1",
      "blockHash": "0x11c0dfce8461360ad9d3d803becb678ce5a633face6e42efb038fd8782b02d9b",
      "blockNumber": "0x2a7d256",
      "gasUsed": "0x190454",
      "effectiveGasPrice": "0x5f5e100",
      "from": "0x95d06b395f04dc1bbd0ce9fcc501d7044ea25dad",
      "to": "0xeace48c11258ec79c941daee80343298dc084be3",
      "contractAddress": null,
      "gasUsedForL1": "0xf8992",
      "l1BlockNumber": "0x5a3840"
    },
    {
      "status": "0x1",
      "cumulativeGasUsed": "0x14f0020",
      "logs": [],
      "logsBloom": "0x00000000000000000000000000000000000000000000000000000000000000000000000000000000000000000000000000000000000000000000000000000000000000000000000000000000000000000000000000000000000000000000000000000000000000000000000000000000000000000000000000000000000000000000000000000000000000000000000000000000000000000000000000000000000000000000000000000000000000000000000000000000000000000000000000000000000000000000000000000000000000000000000000000000000000000000000000000000000000000000000000000000000000000000000000000000",
      "type": "0x2",
      "transactionHash": "0xf9f217dfc6308b7e97956c24e6d3ba19e5dbdd5489c50be8617d08e41a45cad8",
      "transactionIndex": "0x6",
      "blockHash": "0x162c1d92adca1a5f100b57db8165380ec7808915ab42200b532b8e92c25f7029",
      "blockNumber": "0x2a7d25c",
      "gasUsed": "0x19d43c",
      "effectiveGasPrice": "0x5f5e100",
      "from": "0x95d06b395f04dc1bbd0ce9fcc501d7044ea25dad",
      "to": "0xeace48c11258ec79c941daee80343298dc084be3",
      "contractAddress": null,
      "gasUsedForL1": "0x10635d",
      "l1BlockNumber": "0x5a3840"
    },
    {
      "status": "0x1",
      "cumulativeGasUsed": "0x351664",
      "logs": [],
      "logsBloom": "0x00000000000000000000000000000000000000000000000000000000000000000000000000000000000000000000000000000000000000000000000000000000000000000000000000000000000000000000000000000000000000000000000000000000000000000000000000000000000000000000000000000000000000000000000000000000000000000000000000000000000000000000000000000000000000000000000000000000000000000000000000000000000000000000000000000000000000000000000000000000000000000000000000000000000000000000000000000000000000000000000000000000000000000000000000000000",
      "type": "0x2",
      "transactionHash": "0x95e169e4e5bf49af397cfae9498e0af059e2c1e10e2fb26599ad54a989813fff",
      "transactionIndex": "0x2",
      "blockHash": "0x1990c8c0de9de297a352a85f5625ee79019422436c8bc99b3689795e82d304e9",
      "blockNumber": "0x2a7d265",
      "gasUsed": "0x1a1ae7",
      "effectiveGasPrice": "0x5f5e100",
      "from": "0x95d06b395f04dc1bbd0ce9fcc501d7044ea25dad",
      "to": "0xeace48c11258ec79c941daee80343298dc084be3",
      "contractAddress": null,
      "gasUsedForL1": "0x10a823",
      "l1BlockNumber": "0x5a3840"
    },
    {
      "status": "0x1",
      "cumulativeGasUsed": "0x9cd57a",
      "logs": [],
      "logsBloom": "0x00000000000000000000000000000000000000000000000000000000000000000000000000000000000000000000000000000000000000000000000000000000000000000000000000000000000000000000000000000000000000000000000000000000000000000000000000000000000000000000000000000000000000000000000000000000000000000000000000000000000000000000000000000000000000000000000000000000000000000000000000000000000000000000000000000000000000000000000000000000000000000000000000000000000000000000000000000000000000000000000000000000000000000000000000000000",
      "type": "0x2",
      "transactionHash": "0xe9c43503ae121378be57bb6546a5f0b5bb9b4873d4ae748b57e150a96ab09a4e",
      "transactionIndex": "0x1",
      "blockHash": "0xa28b126b3ad97333af97800620d466c357ed59fe1ac4db9183aa5933541a92b8",
      "blockNumber": "0x2a7d26d",
      "gasUsed": "0x9cd57a",
      "effectiveGasPrice": "0x5f5e100",
      "from": "0x95d06b395f04dc1bbd0ce9fcc501d7044ea25dad",
      "to": "0xeace48c11258ec79c941daee80343298dc084be3",
      "contractAddress": null,
      "gasUsedForL1": "0x10e174",
      "l1BlockNumber": "0x5a3840"
    },
    {
      "status": "0x1",
      "cumulativeGasUsed": "0x354537",
      "logs": [],
      "logsBloom": "0x00000000000000000000000000000000000000000000000000000000000000000000000000000000000000000000000000000000000000000000000000000000000000000000000000000000000000000000000000000000000000000000000000000000000000000000000000000000000000000000000000000000000000000000000000000000000000000000000000000000000000000000000000000000000000000000000000000000000000000000000000000000000000000000000000000000000000000000000000000000000000000000000000000000000000000000000000000000000000000000000000000000000000000000000000000000",
      "type": "0x2",
      "transactionHash": "0xb0326ce546ea6a42e624f74ff9bfef92ff7f06d6d0d26a05fc46d5b38f6bcc34",
      "transactionIndex": "0x2",
      "blockHash": "0x36dd79bbdc08caf0f6be02d7dc045c242ee2d2dbf2f0627042eb556c62ebe10a",
      "blockNumber": "0x2a7d273",
      "gasUsed": "0x2dd022",
      "effectiveGasPrice": "0x5f5e100",
      "from": "0x95d06b395f04dc1bbd0ce9fcc501d7044ea25dad",
      "to": "0xeace48c11258ec79c941daee80343298dc084be3",
      "contractAddress": null,
      "gasUsedForL1": "0xe87a8",
      "l1BlockNumber": "0x5a3840"
    },
    {
      "status": "0x1",
      "cumulativeGasUsed": "0x3f3656",
      "logs": [],
      "logsBloom": "0x00000000000000000000000000000000000000000000000000000000000000000000000000000000000000000000000000000000000000000000000000000000000000000000000000000000000000000000000000000000000000000000000000000000000000000000000000000000000000000000000000000000000000000000000000000000000000000000000000000000000000000000000000000000000000000000000000000000000000000000000000000000000000000000000000000000000000000000000000000000000000000000000000000000000000000000000000000000000000000000000000000000000000000000000000000000",
      "type": "0x2",
      "transactionHash": "0x88fe6ca284282ce31551e2fe8bfd6bef447603fbdb44baa0977e0afe19cd8843",
      "transactionIndex": "0x4",
      "blockHash": "0xc78258ac9762c7e936a2d1b6c6f080111a95c27b5d533b479228392d6b3af814",
      "blockNumber": "0x2a7d279",
      "gasUsed": "0x105e64",
      "effectiveGasPrice": "0x5f5e100",
      "from": "0x95d06b395f04dc1bbd0ce9fcc501d7044ea25dad",
      "to": "0xeace48c11258ec79c941daee80343298dc084be3",
      "contractAddress": null,
      "gasUsedForL1": "0xaca85",
      "l1BlockNumber": "0x5a3840"
    },
    {
      "status": "0x1",
      "cumulativeGasUsed": "0x25dae8",
      "logs": [],
      "logsBloom": "0x00000000000000000000000000000000000000000000000000000000000000000000000000000000000000000000000000000000000000000000000000000000000000000000000000000000000000000000000000000000000000000000000000000000000000000000000000000000000000000000000000000000000000000000000000000000000000000000000000000000000000000000000000000000000000000000000000000000000000000000000000000000000000000000000000000000000000000000000000000000000000000000000000000000000000000000000000000000000000000000000000000000000000000000000000000000",
      "type": "0x2",
      "transactionHash": "0x805b0237b621f5602008444c7f01ef496539d21fceaf09713ea154f98ace872d",
      "transactionIndex": "0x3",
      "blockHash": "0x2820af8759953e8ff0c51b68c2ac7296d0e59b4891bc99855984fa3fe226ad2a",
      "blockNumber": "0x2a7d27f",
      "gasUsed": "0x10b6f2",
      "effectiveGasPrice": "0x5f5e100",
      "from": "0x95d06b395f04dc1bbd0ce9fcc501d7044ea25dad",
      "to": "0xeace48c11258ec79c941daee80343298dc084be3",
      "contractAddress": null,
      "gasUsedForL1": "0xb2639",
      "l1BlockNumber": "0x5a3840"
    },
    {
      "status": "0x1",
      "cumulativeGasUsed": "0x42a5ce",
      "logs": [],
      "logsBloom": "0x00000000000000000000000000000000000000000000000000000000000000000000000000000000000000000000000000000000000000000000000000000000000000000000000000000000000000000000000000000000000000000000000000000000000000000000000000000000000000000000000000000000000000000000000000000000000000000000000000000000000000000000000000000000000000000000000000000000000000000000000000000000000000000000000000000000000000000000000000000000000000000000000000000000000000000000000000000000000000000000000000000000000000000000000000000000",
      "type": "0x2",
      "transactionHash": "0x48e8deea5e9137c99226af624b10fb2a3afc8f8eec66e806d88612ac21ed8827",
      "transactionIndex": "0x1",
      "blockHash": "0x5268c1483a7b2e43adfa34a59553b75198841d7052f811327da6f59a18b157e7",
      "blockNumber": "0x2a7d285",
      "gasUsed": "0x42a5ce",
      "effectiveGasPrice": "0x5f5e100",
      "from": "0x95d06b395f04dc1bbd0ce9fcc501d7044ea25dad",
      "to": "0xeace48c11258ec79c941daee80343298dc084be3",
      "contractAddress": null,
      "gasUsedForL1": "0x22dbbe",
      "l1BlockNumber": "0x5a3840"
    }
  ],
  "libraries": [],
  "pending": [],
  "returns": {},
  "timestamp": 1715837918,
  "chain": 421614,
  "commit": "952282c"
}